:100000000C9463000C948B000C948B000C948B006C
:100010000C948B000C948B000C948B000C948B0034
:100020000C948B000C948B000C948B000C948B0024
:100030000C948B000C948B000C948B000C948B0014
:100040000C94E9020C948B000C9459030C94330328
:100050000C948B000C948B000C948B000C948B00F4
:100060000C948B000C948B000A0B0C0D0E0F0001EE
:100070000203040500000008000201000003040759
:100080000000000000000000000000002500280023
:100090002B0000000000240027002A0004040404B0
:1000A0000404040402020202020203030303030322
:1000B00001020408102040800102040810200102FF
:1000C000040810208B0311241FBECFEFD8E0DEBF41
:1000D000CDBF21E0AEE2B1E001C01D92A43FB20766
:1000E000E1F711E0A0E0B1E0EEE0FCE002C0059035
:1000F0000D92AE32B107D9F710E0C3E6D0E004C0EC
:100100002197FE010E94F605C236D107C9F70E9469
:10011000DB030C9405060C94000090E0FC01E05514
:10012000FF4F249184569F4FFC018491882399F0BE
:1001300090E0880F991FFC01EE56FF4FA591B491F6
:10014000FC01E857FF4F859194918FB7F894EC919B
:10015000E22BEC938FBF089590E0FC01EC58FF4F29
:100160002491FC01E055FF4F3491FC01E456FF4F10
:10017000E491EE23C9F0222339F0233001F1A8F4F1
:10018000213019F1223029F1F0E0EE0FFF1FE8577E
:10019000FF4FA591B4918FB7F894EC91611126C0EF
:1001A00030953E233C938FBF08952730A9F0283027
:1001B000C9F0243049F7809180008F7D03C0809181
:1001C00080008F7780938000DFCF84B58F7784BDE8
:1001D000DBCF84B58F7DFBCF8091B0008F7780938C
:1001E000B000D2CF8091B0008F7DF9CF3E2BDACF17
:1001F000682F8091D9010E94AC008091F00190910C
:10020000F1018230910538F0880F991F880F991FEE
:1002100005970197F1F7089581E00C94F8003FB736
:10022000F8948091340190913501A0913601B091FC
:10023000370126B5A89B05C02F3F19F00196A11DD7
:10024000B11D3FBFBA2FA92F982F8827BC01CD0120
:10025000620F711D811D911D42E0660F771F881F7F
:10026000991F4A95D1F70895AF92BF92CF92DF922E
:10027000EF92FF920F931F93CF93DF936C017B015B
:100280008B01040F151FEB015E01AE18BF08C017EC
:10029000D10759F06991D601ED91FC910190F0815F
:1002A000E02DC6010995892B79F7C501DF91CF9122
:1002B0001F910F91FF90EF90DF90CF90BF90AF9084
:1002C0000895FC01538D448D252F30E0842F90E05C
:1002D000821B930B541710F0CF9608950197089541
:1002E000FC01918D828D981761F0A28DAE0FBF2F0A
:1002F000B11D5D968C91928D9F5F9F73928F90E060
:1003000008958FEF9FEF0895FC01918D828D9817CE
:1003100031F0828DE80FF11D858D90E008958FEF0B
:100320009FEF0895FC01918D228D892F90E0805CD4
:100330009F4F821B91098F739927089588E391E05D
:100340000E94920121E0892B09F420E0822F089578
:1003500080E090E0892B29F00E949E0181110C948D
:1003600000000895FC01A48DA80FB92FB11DA35A58
:10037000BF4F2C91848D90E001968F739927848FC5
:10038000A689B7892C93A089B1898C9183708064E8
:100390008C93938D848D981306C00288F389E02D89
:1003A00080818F7D80830895EF92FF920F931F933A
:1003B000CF93DF93EC0181E0888F9B8D8C8D981318
:1003C0001AC0E889F989808185FF15C09FB7F89424
:1003D000EE89FF896083E889F98980818370806470
:1003E00080839FBF81E090E0DF91CF911F910F91BB
:1003F000FF90EF900895F62E0B8D10E00F5F1F4FCA
:100400000F731127E02E8C8D8E110CC00FB607FCD8
:10041000FACFE889F989808185FFF5CFCE010E9466
:10042000B201F1CFEB8DEC0FFD2FF11DE35AFF4F21
:10043000F0829FB7F8940B8FEA89FB8980818062F4
:10044000CFCFCF93DF93EC01888D8823B9F0AA89B1
:10045000BB89E889F9898C9185FD03C0808186FD7F
:100460000DC00FB607FCF7CF8C9185FFF2CF8081CE
:1004700085FFEDCFCE010E94B201E9CFDF91CF9190
:1004800008958EBD00000DB407FEFDCF8EB5089512
:100490000F931F930091DA011091DB012091DC0191
:1004A0003091DD0140E052E16AE770E080E004173E
:1004B00015072607370740F47695679557954795B2
:1004C0008F5F8630A1F787E0982F906A9695809588
:1004D00081709CBD8DBD80E01F910F910C94F80040
:1004E000CF93DF93D82FC62F0E9448028D2F8062B2
:1004F0000E9441028093DE018C2F0E944102DF9115
:10050000CF910C940C016091E50161FD0AC062601D
:100510006093E50180E00E9470028BE19EE4019708
:10052000F1F70895CF93C82F0E9448028C2F0E94A4
:1005300041028093DE018FEF0E944102C82F0E948A
:100540000C018C2FCF910895FF920F931F93CF939F
:10055000DF93C82FF62E072F142F0E9448028C2FEE
:1005600080620E9441028093DE01CF2DD02F115076
:1005700020F089910E944102FACFDF91CF911F9123
:100580000F91FF900C940C01CF93C82F0E9448024A
:100590008C2F0E9441028093DE01CF910C940C01BC
:1005A0000E94480280E50E9441028093DE0183E7B9
:1005B0000E9441020C940C01FC0101900020E9F71B
:1005C0003197AF01481B590BBC0188E391E00C94B3
:1005D00034011F920F920FB60F9211242F933F9365
:1005E0008F939F93AF93BF9380913001909131018E
:1005F000A0913201B091330130912F0123E0230FFC
:100600002D3758F50196A11DB11D20932F01809320
:10061000300190933101A0933201B0933301809166
:10062000340190913501A0913601B09137010196C6
:10063000A11DB11D8093340190933501A093360123
:10064000B0933701BF91AF919F918F913F912F91BF
:100650000F900FBE0F901F90189526E8230F02965B
:10066000A11DB11DD2CF1F920F920FB60F92112470
:100670002F933F934F935F936F937F938F939F93AA
:10068000AF93BF93EF93FF9388E391E00E94B20191
:10069000FF91EF91BF91AF919F918F917F916F915A
:1006A0005F914F913F912F910F900FBE0F901F9030
:1006B00018951F920F920FB60F9211242F938F93BC
:1006C0009F93EF93FF93E0914801F091490180815E
:1006D000E0914E01F0914F0182FD1BC0908180910D
:1006E00051018F5F8F7320915201821741F0E09189
:1006F0005101F0E0E85CFE4F958F80935101FF912E
:10070000EF919F918F912F910F900FBE0F901F909F
:1007100018958081F4CFE8E3F1E01382128288EE2D
:1007200093E0A0E0B0E084839583A683B7838AE05A
:1007300091E09183808385EC90E09587848784ECB9
:1007400090E09787868780EC90E0918B808B81EC9E
:1007500090E0938B828B82EC90E0958B848B86EC7F
:1007600090E0978B868B118E128E138E148EE6ED91
:10077000F1E089E082838AE0838380E896E9A8E952
:10078000B0E084839583A683B78380E28187108A53
:10079000118A85E0838B81E0848B85E090E0A0E086
:1007A000B0E0828F938FA48FB58F85ED91E0918318
:1007B000808312860895CF93DF93CDB7DEB7A097DD
:1007C0000FB6F894DEBF0FBECDBF789484B58260BB
:1007D00084BD84B5816084BD85B5826085BD85B5E5
:1007E000816085BD80916E00816080936E00109263
:1007F00081008091810082608093810080918100DE
:10080000816080938100809180008160809380006E
:100810008091B10084608093B1008091B0008160CC
:100820008093B00080917A00846080937A008091F8
:100830007A00826080937A0080917A008160809350
:100840007A0080917A00806880937A001092C100CB
:10085000E0914801F091490182E08083E0914401F8
:10086000F09145011082E0914601F09147018FEC33
:10087000808310925001E0914C01F0914D0186E08F
:100880008083E0914A01F0914B01808180618083F7
:10089000E0914A01F0914B01808188608083E09172
:1008A0004A01F0914B01808180688083E0914A0188
:1008B000F0914B0180818F7D80831FB7F8948091E8
:1008C0002E01811124C0E6EAF0E08491EAEBF0E029
:1008D0009491E82FF0E0EE0FFF1FEE56FF4FA59129
:1008E000B491EC91E92321F461E08AE00E94AC002C
:1008F0008AE00E948D008CB580618CBD8CB58064CF
:100900008CBD8DE00E948D008BE00E948D00809157
:100910002E018F5F80932E011FBF8091D8018F3FE2
:1009200009F4ABC09091D9019F3F09F4A6C0891783
:1009300031F00E948D008091D9010E948D0080913C
:10094000D8019091D901891719F060E00E94AC009C
:1009500081E00E94F8000E940F016B017C0125E0FC
:10096000822E912CA12CB12C0E940F016C197D09B3
:100970008E099F09683E734081059105A8F321E027
:10098000821A9108A108B10888EEC80E83E0D81E2B
:10099000E11CF11C81149104A104B10429F76FE555
:1009A00084E00E94700286E00E94920245E550E0D9
:1009B00060E070E04093EC015093ED016093EE0134
:1009C0007093EF01682F677D86E00E94700286E0D9
:1009D0000E9492028DE10E949202182F0E94D00282
:1009E0008DE10E94920291E0181390E09093E6014D
:1009F000882341F0181302C00E94D00260E08DE10C
:100A00000E9470021092E80160E08CE10E94700286
:100A10001092EA016FE381E00E94700263E082E0DD
:100A20000E94700280E28093DF0111E16091DF019A
:100A3000812F0E9470021F5F1731C1F763E083E0CE
:100A40000E94700285E08093E9016CE40E947002CC
:100A500060E787E00E94700282EE0E94C40281EE8D
:100A60000E94C4026CE080E00E94700280E00E945C
:100A700092028093E5010E9483024091E90150E0D7
:100A800060E071E080EE91E00E94FC0581E08093DF
:100A9000E701E8E6F0E084914091E90160E071E06F
:100AA0000E94A40282E00E9492020EE610E0F80189
:100AB000949161E070E001C0660F9A95EAF7682BA7
:100AC00082E00E94700286E00E949202887F682F76
:100AD000636086E00E9470020E9483026091E501DB
:100AE00061606093E50180E00E94700260E787E04A
:100AF0000E9470028091D8019091D901891719F054
:100B000061E00E94AC008091E7018823C1F140912F
:100B1000E90160EE71E08AE00E94A40280E2982E72
:100B2000CE0101967C0190E0A92E90E0B92E87E1DC
:100B30000E94920280FD4EC0F701292D11922A9544
:100B4000E9F78091EA0110E000E2811107C01091FD
:100B5000DF01012F113208F000E2101B0E94480251
:100B600081E60E9441028093DE0167010150D8F0C6
:100B70008FEF0E944102F60181936F01F7CF82E06F
:100B80000E949202F801049121E030E001C0220F9E
:100B90000A95EAF72095622F682382E00E9470028E
:100BA0001092E701BBCF115020F08FEF0E9441025D
:100BB000FACF0E940C0160E487E00E94700288E195
:100BC00091E00E94DC02C7010E94DC028BE291E00E
:100BD0000E94DC02A114B10409F4A9CF0E949E0175
:100BE000882309F4A4CF0E940000A1CFEE0FFF1FBD
:100BF0000590F491E02D0994FB01DC0102C0019005
:0E0C00000D9241505040D8F70895F894FFCF60
:100C0E0030303030310000000000D4013401610179
:100C1E0021029201700184014D656E73616A652037
:0E0C2E00726563696269646F3A20000D0A0006
:00000001FF
