:100000000C9463000C948B000C948B000C944704AC
:100010000C9447040C9447040C948B000C948B00B4
:100020000C948B000C948B000C948B000C948B0024
:100030000C948B000C948B000C948B000C948B0014
:100040000C94A5030C948B000C9415040C94EF03F2
:100050000C948B000C948B000C948B000C948B00F4
:100060000C948B000C948B0000000008000201002F
:100070000003040700000000000000000000000072
:1000800023002600290000000000240027002A0089
:1000900000000000250028002B00040404040404D0
:1000A0000404020202020202030303030303010227
:1000B00004081020408001020408102001020408F6
:1000C00010200B05D80711241FBECFEFD8E0DEBFEC
:1000D000CDBF22E0A0E9B1E001C01D92AD39B20769
:1000E000E1F711E0A0E0B1E0E0E6F4E102C0059044
:1000F0000D92A039B107D9F710E0C2E6D0E004C0F4
:100100002197FE010E942B08C136D107C9F70E9432
:10011000F4050C94230A0C9400003FB7F8948091E6
:10012000D5019091D601A091D701B091D80126B503
:10013000A89B05C02F3F19F00196A11DB11D3FBF1F
:10014000BA2FA92F982F8827BC01CD01620F711DEE
:10015000811D911D42E0660F771F881F991F4A95E8
:10016000D1F708958F929F92AF92BF92CF92DF9274
:10017000EF92FF924B015C010E948D006B017C01AC
:100180000E948D006C197D098E099F09683E73409D
:1001900081059105A8F321E0821A9108A108B10810
:1001A00088EEC80E83E0D81EE11CF11C8114910476
:1001B000A104B10429F7FF90EF90DF90CF90BF909A
:1001C000AF909F908F900895AF92BF92CF92DF92A1
:1001D000EF92FF920F931F93CF93DF936C017B01FC
:1001E0008B01040F151FEB015E01AE18BF08C0178D
:1001F000D10759F06991D601ED91FC910190F08100
:10020000E02DC6010995892B79F7C501DF91CF91C2
:100210001F910F91FF90EF90DF90CF90BF90AF9024
:100220000895FC01538D448D252F30E0842F90E0FC
:10023000821B930B541710F0CF96089501970895E1
:10024000FC01918D828D981761F0A28DAE0FBF2FAA
:10025000B11D5D968C91928D9F5F9F73928F90E000
:1002600008958FEF9FEF0895FC01918D828D98176F
:1002700031F0828DE80FF11D858D90E008958FEFAC
:100280009FEF0895FC01918D228D892F90E0805C75
:100290009F4F821B91098F73992708958DED91E0EF
:1002A0000E94420121E0892B09F420E0822F089569
:1002B00080E090E0892B29F00E944E0181110C947E
:1002C00000000895FC01A48DA80FB92FB11DA35AF9
:1002D000BF4F2C91848D90E001968F739927848F66
:1002E000A689B7892C93A089B1898C918370806489
:1002F0008C93938D848D981306C00288F389E02D2A
:1003000080818F7D80830895EF92FF920F931F93DA
:10031000CF93DF93EC0181E0888F9B8D8C8D9813B8
:100320001AC0E889F989808185FF15C09FB7F894C4
:10033000EE89FF896083E889F98980818370806410
:1003400080839FBF81E090E0DF91CF911F910F915B
:10035000FF90EF900895F62E0B8D10E00F5F1F4F6A
:100360000F731127E02E8C8D8E110CC00FB607FC79
:10037000FACFE889F989808185FFF5CFCE010E9407
:100380006201F1CFEB8DEC0FFD2FF11DE35AFF4F12
:10039000F0829FB7F8940B8FEA89FB898081806295
:1003A000CFCFCF93DF93EC01888D8823B9F0AA8952
:1003B000BB89E889F9898C9185FD03C0808186FD20
:1003C0000DC00FB607FCF7CF8C9185FFF2CF80816F
:1003D00085FFEDCFCE010E946201E9CFDF91CF9181
:1003E00008952091D2013091D3012817390771F473
:1003F0009091D0018091D101981741F0E091D00106
:10040000F0E0E057FE4F808190E008958FEF9FEF7E
:1004100008950895EF92FF920F931F93CF93DF9368
:10042000DC015C96ED90FC905D97E114F10479F4A9
:1004300081E090E013969C938E93129790E080E079
:10044000DF91CF911F910F91FF90EF9008955196FA
:10045000ED91FC91529750968C915097982F9095D2
:100460000FB75E962C915E97122F127021FD60954A
:10047000F8942081112319F1282B2083E70121977B
:10048000F1F728E0462F50E0308160FF1AC0382B8A
:100490003083E7012197F1F7BA01759567952150EF
:1004A00089F7112381F08081892380830FBF5C96B7
:1004B0008D919C910197F1F781E090E0C1CF2923C4
:1004C000DCCF3923E5CF9081892BEFCF2091D2016A
:1004D0003091D3012817390761F48091D10120911F
:1004E000D00190E0805C9F4F821B91098F73992708
:1004F000089590E080E008952091D2013091D301D9
:1005000028173907B9F49091D0018091D10198173B
:1005100089F0E091D001F0E0E057FE4F808120911A
:10052000D00130E02F5F3F4F2F7333272093D0014E
:1005300090E008958FEF9FEF08952FB7F894809182
:10054000D9019091DA01A091DB01B091DC012FBFBC
:100550008093820290938302A0938402B0938502D9
:100560008AE792E00E947C0297FF26C02FB7F8949A
:100570008091D9019091DA01A091DB01B091DC0169
:100580002FBF40918202509183026091840270914A
:100590008502841B950BA60BB70B40917E025091F0
:1005A0007F02609180027091810284179507A607EF
:1005B000B707B0F28FEF9FEF089590E080E00895C5
:1005C000FB0101900020E9F73197AF01461B570B63
:1005D000DC01ED91FC910280F381E02D09940F93F1
:1005E0001F93CF93DF93EC01FB0144815581608120
:1005F0007181E881F9810280F381E02D09958C01F8
:100600006AE271E0CE010E94E002800F911FDF914B
:10061000CF911F910F9108950F931F93CF93DF9365
:10062000EC0188819981009759F02A813B81261736
:10063000370730F081E0DF91CF911F910F9108953E
:100640008B016F5F7F4F0E945609009759F0998385
:1006500088831B830A832C813D81232B59F7FC015E
:100660001082E8CF80E0E7CFEF92FF920F931F93C5
:10067000CF93DF936115710541F480E0DF91CF9155
:100680001F910F91FF90EF90089541155105B1F022
:100690007B01EC010C811D81040F151FB8010E9424
:1006A0000C03882351F3288139818C819D81B70106
:1006B000820F931F0E941C0A1D830C8381E0DECFF2
:1006C000CF93DF93EC0188819981009711F00E940C
:1006D000CD08198218821D821C821B821A82DF912A
:1006E000CF910895EF92FF920F931F93CF93DF93D3
:1006F0008C017B01EB0109900020E9F72197C61BD3
:10070000D70BBE010E940C03811109C0C801DF9103
:10071000CF911F910F91FF90EF900C946003F8011F
:10072000D583C483B70180819181DF91CF911F91DF
:100730000F91FF90EF900C941C0AFC018081918135
:10074000009711F00C94CD0808951F920F920FB6E8
:100750000F9211242F933F938F939F93AF93BF9347
:100760008091D9019091DA01A091DB01B091DC0177
:100770003091D40123E0230F2D3758F50196A11DA8
:10078000B11D2093D4018093D9019093DA01A093F5
:10079000DB01B093DC018091D5019091D601A0914D
:1007A000D701B091D8010196A11DB11D8093D5014B
:1007B0009093D601A093D701B093D801BF91AF9188
:1007C0009F918F913F912F910F900FBE0F901F908F
:1007D000189526E8230F0296A11DB11DD2CF1F92B6
:1007E0000F920FB60F9211242F933F934F935F9365
:1007F0006F937F938F939F93AF93BF93EF93FF93E9
:100800008DED91E00E946201FF91EF91BF91AF9158
:100810009F918F917F916F915F914F913F912F9118
:100820000F900FBE0F901F9018951F920F920FB64A
:100830000F9211242F938F939F93EF93FF93E09147
:10084000ED01F091EE018081E091F301F091F4016E
:1008500082FD1BC090818091F6018F5F8F73209184
:10086000F701821741F0E091F601F0E0E352FE4F0C
:10087000958F8093F601FF91EF919F918F912F912A
:100880000F900FBE0F901F9018958081F4CF1F928C
:100890000F920FB60F9211242F933F934F935F93B4
:1008A0006F937F938F939F93AF93BF93EF93FF9338
:1008B000E091D201F091D301309749F0A685B78538
:1008C0008585968D91FF14C09C918923A1F4FF9199
:1008D000EF91BF91AF919F918F917F916F915F91B8
:1008E0004F913F912F910F900FBE0F901F90189531
:1008F0009C91892361F7A389B4899C91858980950E
:1009000089238C93868997890197F1F7608D718D82
:10091000A685B785558538E020E0CB010197F1F732
:10092000822F90E095958795282F4C91452309F0CB
:100930002068315091F7868D81FD20958091D101FD
:1009400090E001968F7399273091D001381799F074
:10095000A091D101B0E0A057BE4F2C938093D1015C
:10096000828D938D0197F1F7A389B4898C91958934
:10097000892B8C93ACCF868D8160868FF1CF90E0F0
:10098000FC01E859FF4F2491FC01E255FF4F3491DF
:10099000FC01E656FF4FE491EE23C9F0222339F023
:1009A000233001F1A8F4213019F1223029F1F0E0CF
:1009B000EE0FFF1FE057FF4FA591B4918FB7F8944A
:1009C000EC91611126C030953E233C938FBF089572
:1009D0002730A9F02830C9F0243049F780918000F1
:1009E0008F7D03C0809180008F7780938000DFCF60
:1009F00084B58F7784BDDBCF84B58F7DFBCF8091AD
:100A0000B0008F778093B000D2CF8091B0008F7DFF
:100A1000F9CF3E2BDACF0F931F93CF93DF93109232
:100A2000E0011092DF0188EE93E0A0E0B0E0809357
:100A3000E1019093E201A093E301B093E4012AE085
:100A400031E03093DE012093DD0125EC30E030937E
:100A5000EA012093E90124EC30E03093EC0120938B
:100A6000EB0120EC30E03093EE012093ED0121EC1E
:100A700030E03093F0012093EF0122EC30E030932E
:100A8000F2012093F10126EC30E03093F401209341
:100A9000F3011092F6011092F7011092F8011092F2
:100AA000F90110927D0210927C0280937E02909355
:100AB0007F02A0938002B09381028CE191E0909339
:100AC0007B0280937A02109291021092900210920F
:100AD0009302109292021092950210929402109238
:100AE000970210929602609198026E7F6D7F6093DC
:100AF00098026695617081E068278BE00E94BF04D0
:100B000049EB50E0FA01649185EA90E0FC01249100
:100B1000222399F030E0220F331FF901EA57FF4FEB
:100B2000A591B491F901E057FF4F259134912FB76A
:100B3000F8943C91632B6C932FBFFA01449140933E
:100B40008A02FC018491E82FF0E0EE0FFF1FE057CE
:100B5000FF4F8591949190938C0280938B0208EBC8
:100B600010E0F8012491C4EAD0E0FE0184918823CA
:100B7000C9F090E0880F991FFC01EA57FF4FA5913B
:100B8000B491FC01E057FF4F459154913FB7F89461
:100B90009C91822F809598239C93FA0190818923C0
:100BA00080833FBF8091980281FD04C061E08AE0AC
:100BB0000E94BF048AE080938602F80104910093AA
:100BC0008702FE01C491EC2FF0E0EE0FFF1FE45806
:100BD000FF4F859194919093890280938802DF91D1
:100BE000CF911F910F910895CF93DF93CDB7DEB7CB
:100BF00062970FB6F894DEBF0FBECDBF789484B570
:100C0000826084BD84B5816084BD85B5826085BD08
:100C100085B5816085BD80916E00816080936E0096
:100C20001092810080918100826080938100809188
:100C30008100816080938100809180008160809339
:100C400080008091B10084608093B1008091B000F9
:100C500081608093B00080917A00846080937A00F4
:100C600080917A00826080937A0080917A0081601E
:100C700080937A0080917A00806880937A00109245
:100C8000C100E091ED01F091EE0182E08083E091FE
:100C9000E901F091EA011082E091EB01F091EC01A1
:100CA0008FEC80831092F501E091F101F091F20157
:100CB00086E08083E091EF01F091F0018081806116
:100CC0008083E091EF01F091F00180818860808362
:100CD000E091EF01F091F001808180688083E091E4
:100CE000EF01F091F00180818F7D80831092950259
:100CF000109294021092930210929202109291021A
:100D0000109290028DE991E0909397028093960261
:100D100090918602963108F047C02DEB30E0309379
:100D20009102209390022BE931E0309393022093BB
:100D300092022CE231E030939502209394022091AC
:100D4000680084E0983048F031E09E3008F430E0EC
:100D500081E001C0880F3A95EAF7822B8093680002
:100D60002DE630E0983050F02BE630E09E3030F049
:100D70002CE630E0963110F030E020E030938E0227
:100D800020938D02292F30E0983008F0C5C081E013
:100D900001C0880F9A95EAF780938F02809196029E
:100DA000909197020197F1F78091940290919502AA
:100DB000892B49F1E091D201F091D30182E0EA3729
:100DC000F80709F1309739F0A389B4899C91858996
:100DD000809589238C93809198028E7F80939802CE
:100DE0001092D1011092D0018AE792E09093D30142
:100DF0008093D201E0918D02F0918E0280819091DA
:100E00008F02892B80836DE271E08DED91E00E946D
:100E1000E0026AE271E08DED91E00E94E00260ED97
:100E200077E080E090E00E94B20080E0E82E80E071
:100E3000F82E1E861D86188A1F861A8A198A6EE366
:100E400071E0CE010D960E947203BE01635F7F4F79
:100E50008AE792E00E94EF021A8219821C821B82AA
:100E60001E821D826CE571E0CE0101960E94720324
:100E700049895A896D857E85CE0101960E94340389
:100E8000811104C0CE0101960E946003BE016F5F14
:100E90007F4F8DED91E00E94EF02CE0101960E94FE
:100EA0009D0368EE73E080E090E00E94B2008AE764
:100EB00092E00E946602892B09F464C018861F82A2
:100EC0001A8619861C861B866CE271E0CE01079695
:100ED0000E9472030E949D0297FD2BC08A309105EB
:100EE00041F189831A820B851C850F5F1F4FB80162
:100EF000CE0107960E940C03882361F32F81388569
:100F00008B859C85BE016F5F7F4F820F931F0E9470
:100F10001C0A1C870B87DECF9E3040F42850310915
:100F200081E001C0880F2A95EAF736CF2E503109AB
:100F3000F7CF1A8219821C821B821E821D8260E7F3
:100F400071E0CE0101960E9472034B855C856F8132
:100F50007885CE0101960E943403811104C0CE0130
:100F600001960E946003BE016F5F7F4F8DED91E09F
:100F70000E94EF02CE0101960E949D03CE010796CA
:100F80000E949D0360ED77E080E090E00E94B20057
:100F9000CE010D960E949D03E114F10409F449CF9E
:100FA0000E944E01882309F444CF0E94000041CFE3
:100FB0008CE191E090937B0280937A028091D20140
:100FC0009091D3018A57924071F4E0918D02F09193
:100FD0008E02908180918F02809589238083109268
:100FE000D3011092D20108952F923F924F925F92B7
:100FF0006F927F928F929F92AF92BF92CF92DF9229
:10100000EF92FF920F931F93CF93DF93CDB7DEB78D
:10101000CA1BDB0B0FB6F894DEBF0FBECDBF099421
:101020002A88398848885F846E847D848C849B8478
:10103000AA84B984C884DF80EE80FD800C811B8186
:10104000AA81B981CE0FD11D0FB6F894DEBF0FBEB5
:10105000CDBFED010895EE0FFF1F0590F491E02D37
:1010600009940F931F93CF93DF938230910510F46F
:1010700082E090E0E0919B02F0919C0230E020E061
:10108000B0E0A0E0309799F42115310509F44AC089
:10109000281B390B24303105D8F58A819B816115D5
:1010A000710589F1FB0193838283FE0111C04081A8
:1010B00051810281138148175907E0F048175907F9
:1010C00099F4109761F012960C93129713961C9353
:1010D0003296CF01DF91CF911F910F910895009328
:1010E0009B0210939C02F4CF2115310551F0421759
:1010F000530738F0A901DB019A01BD01DF01F801B6
:10110000C1CFEF01F9CF90939C0280939B02CDCF8A
:10111000FE01E20FF31F819391932250310939832D
:101120002883D7CF2091990230919A02232B41F442
:10113000209102013091030130939A022093990289
:1011400020910001309101012115310541F42DB7A5
:101150003EB74091040150910501241B350BE091ED
:101160009902F0919A02E217F307A0F42E1B3F0BAD
:101170002817390778F0AC014E5F5F4F2417350709
:1011800048F04E0F5F1F50939A024093990281934B
:1011900091939FCFF0E0E0E09CCFCF93DF93009757
:1011A000E9F0FC01329713821282A0919B02B09168
:1011B0009C02ED0130E020E01097A1F42081318104
:1011C000820F931F2091990230919A0228173907B4
:1011D00009F061C0F0939A02E0939902DF91CF91F8
:1011E0000895EA01CE17DF07E8F54A815B819E0189
:1011F00041155105B1F7E901FB83EA834991599102
:10120000C40FD51FEC17FD0761F480819181029610
:10121000840F951FE90199838883828193819B8341
:101220008A83F0E0E0E012968D919C9113970097ED
:10123000B9F52D913C911197CD010296820F931F24
:101240002091990230919A022817390739F6309780
:1012500051F510929C0210929B02B0939A02A093B7
:101260009902BCCFD383C28340815181840F951FE3
:10127000C817D90761F44E5F5F4F88819981480F85
:10128000591F518340838A819B81938382832115D7
:10129000310509F0B0CFF0939C02E0939B029ECF02
:1012A000FD01DC01C0CF13821282D7CFB0E0A0E0F5
:1012B000ECE5F9E00C94F6078C01009751F4CB01B2
:1012C0000E9431088C01C801CDB7DEB7E0E10C9473
:1012D0001208FC01E60FF71F9C0122503109E217AA
:1012E000F30708F49DC0D901CD91DC911197C61781
:1012F000D70798F0C530D10530F3CE010497861793
:10130000970708F3C61BD70B2297C193D1936D9310
:101310007C93CF010E94CD08D6CF5B01AC1ABD0AE9
:101320004C018C0E9D1EA0919B02B0919C02512CF1
:10133000412CF12CE12C109731F58091990290917C
:101340009A028815990509F05CC04616570608F000
:1013500058C08091000190910101009741F48DB730
:101360009EB74091040150910501841B950BE8172D
:10137000F90708F055C0F0939A02E0939902F90139
:1013800071836083A0CF8D919C91119712966C9080
:10139000129713967C901397A815B90559F56C010F
:1013A00042E0C40ED11CCA14DB0420F1AC014A197E
:1013B0005B09DA011296159780F06282738251837D
:1013C0004083D9016D937C93E114F10471F0D7014E
:1013D0001396FC93EE93129776CF22968C0F9D1F57
:1013E000F90191838083F301EFCFF0939C02E093A6
:1013F0009B0269CF4816590608F42C017D01D301E0
:101400009ACFCB010E9431087C01009749F0AE01D0
:10141000B8010E94130AC8010E94CD08870153CF6A
:1014200010E000E050CFFB01DC0102C001900D9202
:1014300041505040D8F70895FB01DC0101900D9216
:101440000020E1F7089510E0C2E6D0E004C0FE01FC
:101450000E942B082196C336D107C9F7F894FFCF15
:1014600000009D028000000000008401E4001101E2
:10147000D101420120013401000000000A02E40011
:10148000DD02090266027C02F1010D0A005472615C
:101490006E736D69736F72206C6973746F00486F3F
:1014A0006C6120646573646520656C205472616EA4
:1014B000736D69736F722028545829005472616EDD
:1014C000736D69736F7220656E76C3AD613A2000EB
:1014D0005472616E736D69736F72207265636962B5
:1014E00069C3B3207265737075657374613A2000C7
:00000001FF
